{"abi":[{"type":"function","name":"getSkill","inputs":[{"name":"skillId","type":"uint256","internalType":"uint256"}],"outputs":[{"name":"creator","type":"address","internalType":"address"},{"name":"name","type":"string","internalType":"string"},{"name":"description","type":"string","internalType":"string"},{"name":"price","type":"uint256","internalType":"uint256"},{"name":"invokeCount","type":"uint256","internalType":"uint256"}],"stateMutability":"view"},{"type":"function","name":"getSkillCount","inputs":[],"outputs":[{"name":"","type":"uint256","internalType":"uint256"}],"stateMutability":"view"},{"type":"function","name":"invokeSkill","inputs":[{"name":"skillId","type":"uint256","internalType":"uint256"}],"outputs":[],"stateMutability":"payable"},{"type":"function","name":"publishSkill","inputs":[{"name":"name","type":"string","internalType":"string"},{"name":"description","type":"string","internalType":"string"},{"name":"price","type":"uint256","internalType":"uint256"}],"outputs":[],"stateMutability":"nonpayable"},{"type":"function","name":"skills","inputs":[{"name":"","type":"uint256","internalType":"uint256"}],"outputs":[{"name":"creator","type":"address","internalType":"address"},{"name":"name","type":"string","internalType":"string"},{"name":"description","type":"string","internalType":"string"},{"name":"price","type":"uint256","internalType":"uint256"},{"name":"invokeCount","type":"uint256","internalType":"uint256"}],"stateMutability":"view"},{"type":"event","name":"SkillInvoked","inputs":[{"name":"skillId","type":"uint256","indexed":true,"internalType":"uint256"},{"name":"invoker","type":"address","indexed":true,"internalType":"address"},{"name":"amountPaid","type":"uint256","indexed":false,"internalType":"uint256"}],"anonymous":false},{"type":"event","name":"SkillPublished","inputs":[{"name":"skillId","type":"uint256","indexed":true,"internalType":"uint256"},{"name":"creator","type":"address","indexed":true,"internalType":"address"},{"name":"name","type":"string","indexed":false,"internalType":"string"},{"name":"price","type":"uint256","indexed":false,"internalType":"uint256"}],"anonymous":false}],"bytecode":{"object":"0x6080604052348015600e575f5ffd5b506110af8061001c5f395ff3fe608060405260043610610049575f3560e01c806305f53b291461004d57806350d15fbe1461007757806365cec444146100b75780637bd2ff6e146100d3578063bd880fae146100fb575b5f5ffd5b348015610058575f5ffd5b5061006161013b565b60405161006e9190610856565b60405180910390f35b348015610082575f5ffd5b5061009d600480360381019061009891906108a1565b610146565b6040516100ae95949392919061097b565b60405180910390f35b6100d160048036038101906100cc91906108a1565b6102b1565b005b3480156100de575f5ffd5b506100f960048036038101906100f49190610a3b565b610499565b005b348015610106575f5ffd5b50610121600480360381019061011c91906108a1565b610673565b60405161013295949392919061097b565b60405180910390f35b5f5f80549050905090565b5f8181548110610154575f80fd5b905f5260205f2090600502015f91509050805f015f9054906101000a900473ffffffffffffffffffffffffffffffffffffffff169080600101805461019890610af9565b80601f01602080910402602001604051908101604052809291908181526020018280546101c490610af9565b801561020f5780601f106101e65761010080835404028352916020019161020f565b820191905f5260205f20905b8154815290600101906020018083116101f257829003601f168201915b50505050509080600201805461022490610af9565b80601f016020809104026020016040519081016040528092919081815260200182805461025090610af9565b801561029b5780601f106102725761010080835404028352916020019161029b565b820191905f5260205f20905b81548152906001019060200180831161027e57829003601f168201915b5050505050908060030154908060040154905085565b5f8054905081106102f7576040517f08c379a00000000000000000000000000000000000000000000000000000000081526004016102ee90610b73565b60405180910390fd5b5f5f828154811061030b5761030a610b91565b5b905f5260205f20906005020190508060030154341015610360576040517f08c379a000000000000000000000000000000000000000000000000000000000815260040161035790610c08565b60405180910390fd5b6001816004015f8282546103749190610c53565b925050819055505f815f015f9054906101000a900473ffffffffffffffffffffffffffffffffffffffff1673ffffffffffffffffffffffffffffffffffffffff16346040516103c290610cb3565b5f6040518083038185875af1925050503d805f81146103fc576040519150601f19603f3d011682016040523d82523d5f602084013e610401565b606091505b5050905080610445576040517f08c379a000000000000000000000000000000000000000000000000000000000815260040161043c90610d11565b60405180910390fd5b3373ffffffffffffffffffffffffffffffffffffffff16837f222b8539c384c80b98720cf0b0a27e343d4cabc6bdc4186c7a041472a8cf10a73460405161048c9190610856565b60405180910390a3505050565b5f6040518060a001604052803373ffffffffffffffffffffffffffffffffffffffff16815260200187878080601f0160208091040260200160405190810160405280939291908181526020018383808284375f81840152601f19601f82011690508083019250505050505050815260200185858080601f0160208091040260200160405190810160405280939291908181526020018383808284375f81840152601f19601f8201169050808301925050505050505081526020018381526020015f815250908060018154018082558091505060019003905f5260205f2090600502015f909190919091505f820151815f015f6101000a81548173ffffffffffffffffffffffffffffffffffffffff021916908373ffffffffffffffffffffffffffffffffffffffff16021790555060208201518160010190816105dc9190610f0d565b5060408201518160020190816105f29190610f0d565b50606082015181600301556080820151816004015550503373ffffffffffffffffffffffffffffffffffffffff1660015f805490506106319190610fdc565b7fb63244f573057e1b5ec1cd8b78de039c75a5c3afc87b40b9bcd7190e33866cd687878560405161066493929190611049565b60405180910390a35050505050565b5f6060805f5f5f8054905086106106bf576040517f08c379a00000000000000000000000000000000000000000000000000000000081526004016106b690610b73565b60405180910390fd5b5f5f87815481106106d3576106d2610b91565b5b905f5260205f2090600502019050805f015f9054906101000a900473ffffffffffffffffffffffffffffffffffffffff1681600101826002018360030154846004015483805461072290610af9565b80601f016020809104026020016040519081016040528092919081815260200182805461074e90610af9565b80156107995780601f1061077057610100808354040283529160200191610799565b820191905f5260205f20905b81548152906001019060200180831161077c57829003601f168201915b505050505093508280546107ac90610af9565b80601f01602080910402602001604051908101604052809291908181526020018280546107d890610af9565b80156108235780601f106107fa57610100808354040283529160200191610823565b820191905f5260205f20905b81548152906001019060200180831161080657829003601f168201915b50505050509250955095509550955095505091939590929450565b5f819050919050565b6108508161083e565b82525050565b5f6020820190506108695f830184610847565b92915050565b5f5ffd5b5f5ffd5b6108808161083e565b811461088a575f5ffd5b50565b5f8135905061089b81610877565b92915050565b5f602082840312156108b6576108b561086f565b5b5f6108c38482850161088d565b91505092915050565b5f73ffffffffffffffffffffffffffffffffffffffff82169050919050565b5f6108f5826108cc565b9050919050565b610905816108eb565b82525050565b5f81519050919050565b5f82825260208201905092915050565b8281835e5f83830152505050565b5f601f19601f8301169050919050565b5f61094d8261090b565b6109578185610915565b9350610967818560208601610925565b61097081610933565b840191505092915050565b5f60a08201905061098e5f8301886108fc565b81810360208301526109a08187610943565b905081810360408301526109b48186610943565b90506109c36060830185610847565b6109d06080830184610847565b9695505050505050565b5f5ffd5b5f5ffd5b5f5ffd5b5f5f83601f8401126109fb576109fa6109da565b5b8235905067ffffffffffffffff811115610a1857610a176109de565b5b602083019150836001820283011115610a3457610a336109e2565b5b9250929050565b5f5f5f5f5f60608688031215610a5457610a5361086f565b5b5f86013567ffffffffffffffff811115610a7157610a70610873565b5b610a7d888289016109e6565b9550955050602086013567ffffffffffffffff811115610aa057610a9f610873565b5b610aac888289016109e6565b93509350506040610abf8882890161088d565b9150509295509295909350565b7f4e487b71000000000000000000000000000000000000000000000000000000005f52602260045260245ffd5b5f6002820490506001821680610b1057607f821691505b602082108103610b2357610b22610acc565b5b50919050565b7f536b696c6c20646f6573206e6f742065786973740000000000000000000000005f82015250565b5f610b5d601483610915565b9150610b6882610b29565b602082019050919050565b5f6020820190508181035f830152610b8a81610b51565b9050919050565b7f4e487b71000000000000000000000000000000000000000000000000000000005f52603260045260245ffd5b7f496e73756666696369656e74207061796d656e740000000000000000000000005f82015250565b5f610bf2601483610915565b9150610bfd82610bbe565b602082019050919050565b5f6020820190508181035f830152610c1f81610be6565b9050919050565b7f4e487b71000000000000000000000000000000000000000000000000000000005f52601160045260245ffd5b5f610c5d8261083e565b9150610c688361083e565b9250828201905080821115610c8057610c7f610c26565b5b92915050565b5f81905092915050565b50565b5f610c9e5f83610c86565b9150610ca982610c90565b5f82019050919050565b5f610cbd82610c93565b9150819050919050565b7f5061796d656e7420746f2063726561746f72206661696c6564000000000000005f82015250565b5f610cfb601983610915565b9150610d0682610cc7565b602082019050919050565b5f6020820190508181035f830152610d2881610cef565b9050919050565b7f4e487b71000000000000000000000000000000000000000000000000000000005f52604160045260245ffd5b5f819050815f5260205f209050919050565b5f6020601f8301049050919050565b5f82821b905092915050565b5f60088302610db87fffffffffffffffffffffffffffffffffffffffffffffffffffffffffffffffff82610d7d565b610dc28683610d7d565b95508019841693508086168417925050509392505050565b5f819050919050565b5f610dfd610df8610df38461083e565b610dda565b61083e565b9050919050565b5f819050919050565b610e1683610de3565b610e2a610e2282610e04565b848454610d89565b825550505050565b5f5f905090565b610e41610e32565b610e4c818484610e0d565b505050565b5f5b82811015610e7257610e675f828401610e39565b600181019050610e53565b505050565b601f821115610ec55782821115610ec457610e9181610d5c565b610e9a83610d6e565b610ea385610d6e565b6020861015610eb0575f90505b808301610ebf82840382610e51565b505050505b5b505050565b5f82821c905092915050565b5f610ee55f1984600802610eca565b1980831691505092915050565b5f610efd8383610ed6565b9150826002028217905092915050565b610f168261090b565b67ffffffffffffffff811115610f2f57610f2e610d2f565b5b610f398254610af9565b610f44828285610e77565b5f60209050601f831160018114610f75575f8415610f63578287015190505b610f6d8582610ef2565b865550610fd4565b601f198416610f8386610d5c565b5f5b82811015610faa57848901518255600182019150602085019450602081019050610f85565b86831015610fc75784890151610fc3601f891682610ed6565b8355505b6001600288020188555050505b505050505050565b5f610fe68261083e565b9150610ff18361083e565b925082820390508181111561100957611008610c26565b5b92915050565b828183375f83830152505050565b5f6110288385610915565b935061103583858461100f565b61103e83610933565b840190509392505050565b5f6040820190508181035f83015261106281858761101d565b90506110716020830184610847565b94935050505056fea264697066735822122071cb3b57f1cd2a6bf3146d4c2deee8d431af1f8ffd5d48e0e28612f84bd4d72f64736f6c63430008230033","linkReferences":{}},"methodIdentifiers":{"getSkill(uint256)":"bd880fae","getSkillCount()":"05f53b29","invokeSkill(uint256)":"65cec444","publishSkill(string,string,uint256)":"7bd2ff6e","skills(uint256)":"50d15fbe"},"id":0}