{"abi":[{"type":"function","name":"getSkill","inputs":[{"name":"skillId","type":"uint256","internalType":"uint256"}],"outputs":[{"name":"creator","type":"address","internalType":"address"},{"name":"name","type":"string","internalType":"string"},{"name":"description","type":"string","internalType":"string"},{"name":"bodyCID","type":"string","internalType":"string"},{"name":"price","type":"uint256","internalType":"uint256"},{"name":"invokeCount","type":"uint256","internalType":"uint256"}],"stateMutability":"view"},{"type":"function","name":"getSkillCount","inputs":[],"outputs":[{"name":"","type":"uint256","internalType":"uint256"}],"stateMutability":"view"},{"type":"function","name":"invokeSkill","inputs":[{"name":"skillId","type":"uint256","internalType":"uint256"}],"outputs":[],"stateMutability":"payable"},{"type":"function","name":"publishSkill","inputs":[{"name":"name","type":"string","internalType":"string"},{"name":"description","type":"string","internalType":"string"},{"name":"bodyCID","type":"string","internalType":"string"},{"name":"price","type":"uint256","internalType":"uint256"}],"outputs":[],"stateMutability":"nonpayable"},{"type":"function","name":"skills","inputs":[{"name":"","type":"uint256","internalType":"uint256"}],"outputs":[{"name":"creator","type":"address","internalType":"address"},{"name":"name","type":"string","internalType":"string"},{"name":"description","type":"string","internalType":"string"},{"name":"bodyCID","type":"string","internalType":"string"},{"name":"price","type":"uint256","internalType":"uint256"},{"name":"invokeCount","type":"uint256","internalType":"uint256"}],"stateMutability":"view"},{"type":"event","name":"SkillInvoked","inputs":[{"name":"skillId","type":"uint256","indexed":true,"internalType":"uint256"},{"name":"invoker","type":"address","indexed":true,"internalType":"address"},{"name":"amountPaid","type":"uint256","indexed":false,"internalType":"uint256"}],"anonymous":false},{"type":"event","name":"SkillPublished","inputs":[{"name":"skillId","type":"uint256","indexed":true,"internalType":"uint256"},{"name":"creator","type":"address","indexed":true,"internalType":"address"},{"name":"name","type":"string","indexed":false,"internalType":"string"},{"name":"price","type":"uint256","indexed":false,"internalType":"uint256"}],"anonymous":false}],"bytecode":{"object":"0x6080604052348015600e575f5ffd5b506112788061001c5f395ff3fe608060405260043610610049575f3560e01c806305f53b291461004d57806350d15fbe1461007757806365cec444146100b8578063b05cbe8b146100d4578063bd880fae146100fc575b5f5ffd5b348015610058575f5ffd5b5061006161013d565b60405161006e91906109d7565b60405180910390f35b348015610082575f5ffd5b5061009d60048036038101906100989190610a22565b610148565b6040516100af96959493929190610afc565b60405180910390f35b6100d260048036038101906100cd9190610a22565b61033f565b005b3480156100df575f5ffd5b506100fa60048036038101906100f59190610bd1565b610527565b005b348015610107575f5ffd5b50610122600480360381019061011d9190610a22565b610762565b60405161013496959493929190610afc565b60405180910390f35b5f5f80549050905090565b5f8181548110610156575f80fd5b905f5260205f2090600602015f91509050805f015f9054906101000a900473ffffffffffffffffffffffffffffffffffffffff169080600101805461019a90610cc2565b80601f01602080910402602001604051908101604052809291908181526020018280546101c690610cc2565b80156102115780601f106101e857610100808354040283529160200191610211565b820191905f5260205f20905b8154815290600101906020018083116101f457829003601f168201915b50505050509080600201805461022690610cc2565b80601f016020809104026020016040519081016040528092919081815260200182805461025290610cc2565b801561029d5780601f106102745761010080835404028352916020019161029d565b820191905f5260205f20905b81548152906001019060200180831161028057829003601f168201915b5050505050908060030180546102b290610cc2565b80601f01602080910402602001604051908101604052809291908181526020018280546102de90610cc2565b80156103295780601f1061030057610100808354040283529160200191610329565b820191905f5260205f20905b81548152906001019060200180831161030c57829003601f168201915b5050505050908060040154908060050154905086565b5f805490508110610385576040517f08c379a000000000000000000000000000000000000000000000000000000000815260040161037c90610d3c565b60405180910390fd5b5f5f828154811061039957610398610d5a565b5b905f5260205f209060060201905080600401543410156103ee576040517f08c379a00000000000000000000000000000000000000000000000000000000081526004016103e590610dd1565b60405180910390fd5b6001816005015f8282546104029190610e1c565b925050819055505f815f015f9054906101000a900473ffffffffffffffffffffffffffffffffffffffff1673ffffffffffffffffffffffffffffffffffffffff163460405161045090610e7c565b5f6040518083038185875af1925050503d805f811461048a576040519150601f19603f3d011682016040523d82523d5f602084013e61048f565b606091505b50509050806104d3576040517f08c379a00000000000000000000000000000000000000000000000000000000081526004016104ca90610eda565b60405180910390fd5b3373ffffffffffffffffffffffffffffffffffffffff16837f222b8539c384c80b98720cf0b0a27e343d4cabc6bdc4186c7a041472a8cf10a73460405161051a91906109d7565b60405180910390a3505050565b5f6040518060c001604052803373ffffffffffffffffffffffffffffffffffffffff16815260200189898080601f0160208091040260200160405190810160405280939291908181526020018383808284375f81840152601f19601f82011690508083019250505050505050815260200187878080601f0160208091040260200160405190810160405280939291908181526020018383808284375f81840152601f19601f82011690508083019250505050505050815260200185858080601f0160208091040260200160405190810160405280939291908181526020018383808284375f81840152601f19601f8201169050808301925050505050505081526020018381526020015f815250908060018154018082558091505060019003905f5260205f2090600602015f909190919091505f820151815f015f6101000a81548173ffffffffffffffffffffffffffffffffffffffff021916908373ffffffffffffffffffffffffffffffffffffffff16021790555060208201518160010190816106b391906110d6565b5060408201518160020190816106c991906110d6565b5060608201518160030190816106df91906110d6565b506080820151816004015560a0820151816005015550503373ffffffffffffffffffffffffffffffffffffffff1660015f8054905061071e91906111a5565b7fb63244f573057e1b5ec1cd8b78de039c75a5c3afc87b40b9bcd7190e33866cd689898560405161075193929190611212565b60405180910390a350505050505050565b5f60608060605f5f5f8054905087106107b0576040517f08c379a00000000000000000000000000000000000000000000000000000000081526004016107a790610d3c565b60405180910390fd5b5f5f88815481106107c4576107c3610d5a565b5b905f5260205f2090600602019050805f015f9054906101000a900473ffffffffffffffffffffffffffffffffffffffff168160010182600201836003018460040154856005015484805461081790610cc2565b80601f016020809104026020016040519081016040528092919081815260200182805461084390610cc2565b801561088e5780601f106108655761010080835404028352916020019161088e565b820191905f5260205f20905b81548152906001019060200180831161087157829003601f168201915b505050505094508380546108a190610cc2565b80601f01602080910402602001604051908101604052809291908181526020018280546108cd90610cc2565b80156109185780601f106108ef57610100808354040283529160200191610918565b820191905f5260205f20905b8154815290600101906020018083116108fb57829003601f168201915b5050505050935082805461092b90610cc2565b80601f016020809104026020016040519081016040528092919081815260200182805461095790610cc2565b80156109a25780601f10610979576101008083540402835291602001916109a2565b820191905f5260205f20905b81548152906001019060200180831161098557829003601f168201915b505050505092509650965096509650965096505091939550919395565b5f819050919050565b6109d1816109bf565b82525050565b5f6020820190506109ea5f8301846109c8565b92915050565b5f5ffd5b5f5ffd5b610a01816109bf565b8114610a0b575f5ffd5b50565b5f81359050610a1c816109f8565b92915050565b5f60208284031215610a3757610a366109f0565b5b5f610a4484828501610a0e565b91505092915050565b5f73ffffffffffffffffffffffffffffffffffffffff82169050919050565b5f610a7682610a4d565b9050919050565b610a8681610a6c565b82525050565b5f81519050919050565b5f82825260208201905092915050565b8281835e5f83830152505050565b5f601f19601f8301169050919050565b5f610ace82610a8c565b610ad88185610a96565b9350610ae8818560208601610aa6565b610af181610ab4565b840191505092915050565b5f60c082019050610b0f5f830189610a7d565b8181036020830152610b218188610ac4565b90508181036040830152610b358187610ac4565b90508181036060830152610b498186610ac4565b9050610b5860808301856109c8565b610b6560a08301846109c8565b979650505050505050565b5f5ffd5b5f5ffd5b5f5ffd5b5f5f83601f840112610b9157610b90610b70565b5b8235905067ffffffffffffffff811115610bae57610bad610b74565b5b602083019150836001820283011115610bca57610bc9610b78565b5b9250929050565b5f5f5f5f5f5f5f6080888a031215610bec57610beb6109f0565b5b5f88013567ffffffffffffffff811115610c0957610c086109f4565b5b610c158a828b01610b7c565b9750975050602088013567ffffffffffffffff811115610c3857610c376109f4565b5b610c448a828b01610b7c565b9550955050604088013567ffffffffffffffff811115610c6757610c666109f4565b5b610c738a828b01610b7c565b93509350506060610c868a828b01610a0e565b91505092959891949750929550565b7f4e487b71000000000000000000000000000000000000000000000000000000005f52602260045260245ffd5b5f6002820490506001821680610cd957607f821691505b602082108103610cec57610ceb610c95565b5b50919050565b7f536b696c6c20646f6573206e6f742065786973740000000000000000000000005f82015250565b5f610d26601483610a96565b9150610d3182610cf2565b602082019050919050565b5f6020820190508181035f830152610d5381610d1a565b9050919050565b7f4e487b71000000000000000000000000000000000000000000000000000000005f52603260045260245ffd5b7f496e73756666696369656e74207061796d656e740000000000000000000000005f82015250565b5f610dbb601483610a96565b9150610dc682610d87565b602082019050919050565b5f6020820190508181035f830152610de881610daf565b9050919050565b7f4e487b71000000000000000000000000000000000000000000000000000000005f52601160045260245ffd5b5f610e26826109bf565b9150610e31836109bf565b9250828201905080821115610e4957610e48610def565b5b92915050565b5f81905092915050565b50565b5f610e675f83610e4f565b9150610e7282610e59565b5f82019050919050565b5f610e8682610e5c565b9150819050919050565b7f5061796d656e7420746f2063726561746f72206661696c6564000000000000005f82015250565b5f610ec4601983610a96565b9150610ecf82610e90565b602082019050919050565b5f6020820190508181035f830152610ef181610eb8565b9050919050565b7f4e487b71000000000000000000000000000000000000000000000000000000005f52604160045260245ffd5b5f819050815f5260205f209050919050565b5f6020601f8301049050919050565b5f82821b905092915050565b5f60088302610f817fffffffffffffffffffffffffffffffffffffffffffffffffffffffffffffffff82610f46565b610f8b8683610f46565b95508019841693508086168417925050509392505050565b5f819050919050565b5f610fc6610fc1610fbc846109bf565b610fa3565b6109bf565b9050919050565b5f819050919050565b610fdf83610fac565b610ff3610feb82610fcd565b848454610f52565b825550505050565b5f5f905090565b61100a610ffb565b611015818484610fd6565b505050565b5f5b8281101561103b576110305f828401611002565b60018101905061101c565b505050565b601f82111561108e578282111561108d5761105a81610f25565b61106383610f37565b61106c85610f37565b6020861015611079575f90505b8083016110888284038261101a565b505050505b5b505050565b5f82821c905092915050565b5f6110ae5f1984600802611093565b1980831691505092915050565b5f6110c6838361109f565b9150826002028217905092915050565b6110df82610a8c565b67ffffffffffffffff8111156110f8576110f7610ef8565b5b6111028254610cc2565b61110d828285611040565b5f60209050601f83116001811461113e575f841561112c578287015190505b61113685826110bb565b86555061119d565b601f19841661114c86610f25565b5f5b828110156111735784890151825560018201915060208501945060208101905061114e565b86831015611190578489015161118c601f89168261109f565b8355505b6001600288020188555050505b505050505050565b5f6111af826109bf565b91506111ba836109bf565b92508282039050818111156111d2576111d1610def565b5b92915050565b828183375f83830152505050565b5f6111f18385610a96565b93506111fe8385846111d8565b61120783610ab4565b840190509392505050565b5f6040820190508181035f83015261122b8185876111e6565b905061123a60208301846109c8565b94935050505056fea264697066735822122077bb42ad7026e16d06ec8d620e1d74b8385f63e5b1d168f47f2a09093a09a4b464736f6c63430008230033","linkReferences":{}},"methodIdentifiers":{"getSkill(uint256)":"bd880fae","getSkillCount()":"05f53b29","invokeSkill(uint256)":"65cec444","publishSkill(string,string,string,uint256)":"b05cbe8b","skills(uint256)":"50d15fbe"},"id":0}